:020000040800F2
:100000000050002025020008AF020008B5020008D9
:10001000BB020008C1020008C7020008000000007F
:10002000000000000000000000000000CD020008F9
:10003000D302000800000000D9020008DF02000817
:10004000EB020008F7020008030300080F03000892
:100050001B03000827030008330300083F030008C0
:100060004B03000857030008630300086F030008F0
:100070007B03000887030008930300089F03000820
:10008000AB030008B7030008C3030008CF03000850
:10009000DB030008E7030008F3030008FF03000880
:1000A0000B04000817040008230400082F040008AC
:1000B0003B04000847040008530400085F040008DC
:1000C0006B04000877040008830400088F0400080C
:1000D0009B040008A7040008B3040008BF0400083C
:1000E000CB040008D7040008E3040008EF0400086C
:1000F000FB04000807050008130500081F05000899
:100100002B05000837050008430500084F050008C7
:100110005B05000867050008730500087F050008F7
:100120008B05000897050008A3050008AF05000827
:10013000BB050008C7050008D3050008DF05000857
:10014000EB050008F7050008030600080F06000885
:100150001B06000827060008330600083F060008B3
:100160004B06000857060008630600086F060008E3
:100170007B06000887060008930600089F06000813
:10018000AB060008B706000880B400AF0D4B9B69B2
:100190000C4A43F0100393610B4B5B680A4A23F44B
:1001A00070035360084B5B68074A43F44013536085
:1001B000054BDB68044A43F40053D36000BFBD46DF
:1001C00080BC7047001002400010014080B400AFB6
:1001D000044BDB68034A43F40053D36000BFBD46C1
:1001E00080BC70470010014080B400AF044BDB6856
:1001F000034A23F40053D36000BFBD4680BC704760
:100200000010014080B500AF00F003F8002318464D
:1002100080BD80B500AFFFF7B7FFFFF7D7FF00BF86
:1002200080BD000080B487B000AF1A4A1A4BD31AC1
:100230007B60194B7B61194B3B610023FB600AE03B
:100240003A69531C3B617B69591C796112781A70B9
:10025000FB680133FB60FA687B689A42F0D3104A6E
:10026000104BD31A7B600F4B7B610023BB6007E010
:100270007B695A1C7A6100221A70BB680133BB602B
:10028000BA687B689A42F3D300BF00BF1C37BD46F3
:1002900080BC70470400002004000020C406000851
:1002A000040000200400002080B400AFFEE780B40A
:1002B00000AFFEE780B400AFFEE780B400AFFEE71A
:1002C00080B400AFFEE780B400AFFEE780B400AFBB
:1002D000FEE780B400AFFEE780B400AFFEE780B475
:1002E00000AF00BFBD4680BC704780B400AF00BF08
:1002F000BD4680BC704780B400AF00BFBD4680BC27
:10030000704780B400AF00BFBD4680BC704780B46A
:1003100000AF00BFBD4680BC704780B400AF00BFD7
:10032000BD4680BC704780B400AF00BFBD4680BCF6
:10033000704780B400AF00BFBD4680BC704780B43A
:1003400000AF00BFBD4680BC704780B400AF00BFA7
:10035000BD4680BC704780B400AF00BFBD4680BCC6
:10036000704780B400AF00BFBD4680BC704780B40A
:1003700000AF00BFBD4680BC704780B400AF00BF77
:10038000BD4680BC704780B400AF00BFBD4680BC96
:10039000704780B400AF00BFBD4680BC704780B4DA
:1003A00000AF00BFBD4680BC704780B400AF00BF47
:1003B000BD4680BC704780B400AF00BFBD4680BC66
:1003C000704780B400AF00BFBD4680BC704780B4AA
:1003D00000AF00BFBD4680BC704780B400AF00BF17
:1003E000BD4680BC704780B400AF00BFBD4680BC36
:1003F000704780B400AF00BFBD4680BC704780B47A
:1004000000AF00BFBD4680BC704780B400AF00BFE6
:10041000BD4680BC704780B400AF00BFBD4680BC05
:10042000704780B400AF00BFBD4680BC704780B449
:1004300000AF00BFBD4680BC704780B400AF00BFB6
:10044000BD4680BC704780B400AF00BFBD4680BCD5
:10045000704780B400AF00BFBD4680BC704780B419
:1004600000AF00BFBD4680BC704780B400AF00BF86
:10047000BD4680BC704780B400AF00BFBD4680BCA5
:10048000704780B400AF00BFBD4680BC704780B4E9
:1004900000AF00BFBD4680BC704780B400AF00BF56
:1004A000BD4680BC704780B400AF00BFBD4680BC75
:1004B000704780B400AF00BFBD4680BC704780B4B9
:1004C00000AF00BFBD4680BC704780B400AF00BF26
:1004D000BD4680BC704780B400AF00BFBD4680BC45
:1004E000704780B400AF00BFBD4680BC704780B489
:1004F00000AF00BFBD4680BC704780B400AF00BFF6
:10050000BD4680BC704780B400AF00BFBD4680BC14
:10051000704780B400AF00BFBD4680BC704780B458
:1005200000AF00BFBD4680BC704780B400AF00BFC5
:10053000BD4680BC704780B400AF00BFBD4680BCE4
:10054000704780B400AF00BFBD4680BC704780B428
:1005500000AF00BFBD4680BC704780B400AF00BF95
:10056000BD4680BC704780B400AF00BFBD4680BCB4
:10057000704780B400AF00BFBD4680BC704780B4F8
:1005800000AF00BFBD4680BC704780B400AF00BF65
:10059000BD4680BC704780B400AF00BFBD4680BC84
:1005A000704780B400AF00BFBD4680BC704780B4C8
:1005B00000AF00BFBD4680BC704780B400AF00BF35
:1005C000BD4680BC704780B400AF00BFBD4680BC54
:1005D000704780B400AF00BFBD4680BC704780B498
:1005E00000AF00BFBD4680BC704780B400AF00BF05
:1005F000BD4680BC704780B400AF00BFBD4680BC24
:10060000704780B400AF00BFBD4680BC704780B467
:1006100000AF00BFBD4680BC704780B400AF00BFD4
:10062000BD4680BC704780B400AF00BFBD4680BCF3
:10063000704780B400AF00BFBD4680BC704780B437
:1006400000AF00BFBD4680BC704780B400AF00BFA4
:10065000BD4680BC704780B400AF00BFBD4680BCC3
:10066000704780B400AF00BFBD4680BC704780B407
:1006700000AF00BFBD4680BC704780B400AF00BF74
:10068000BD4680BC704780B400AF00BFBD4680BC93
:10069000704780B400AF00BFBD4680BC704780B4D7
:1006A00000AF00BFBD4680BC704780B400AF00BF44
:1006B000BD4680BC704780B400AF00BFBD4680BC63
:0406C000704700BFC0
:0400000508000225C8
:00000001FF
