:1004100080B500AF00F0B6F800F08AFA00BF80BDEA
:1004200080B483B000AF786039607B68DB680121FD
:100430003A6801FA02F21A437B68DA6000BF0C37AF
:10044000BD4680BC704780B500AF10210248FFF761
:10045000E7FF00BF80BD00BFC0F00F4080B500AF18
:10046000054B1B68B3F57A7FFAD3034B00221A6061
:1004700000F062F8F4E700BF0000002080B483B011
:1004800000AF786039607B685B6801213A6801FAE7
:1004900002F21A437B685A6000BF0C37BD4680BC2D
:1004A000704780B483B000AF786039607B689B6828
:1004B00001213A6801FA02F21A437B689A6000BF90
:1004C0000C37BD4680BC704780B483B000AF786005
:1004D00039607B68DB6801213A6801FA02F21A434D
:1004E0007B68DA6000BF0C37BD4680BC704780B4C3
:1004F00000AF00BFBD4680BC704780B500AF102183
:100500000248FFF7CEFF00BF80BD00BFC0F00F4024
:1005100080B500AF10210248FFF7B0FF00BF80BDDB
:10052000C0F00F4080B500AF10210248FFF7CCFFAC
:1005300000BF80BDC0F00F4080B500AFFFF7F2FFF5
:1005400000BF80BD80B400AF054BD3F80032044A31
:1005500043F00103C2F8003200BFBD4680BC7047C3
:100560000040064080B400AF054BD3F80032044A87
:1005700023F00103C2F8003200BFBD4680BC7047C3
:100580000040064080B500AF00F04EF800F06AF879
:1005900000F096F800F0AAF800BF80BD80B483B0E8
:1005A00000AF0346FB71FB790E2B19D80F4B5B682C
:1005B0000E4A23F4006353600C4B5B680B4A23F034
:1005C000F0035360094B5A68FB791B01DBB2074902
:1005D00013434B60054B5B68044A43F4006353606C
:1005E00000BF0C37BD4680BC704700BF0080044090
:1005F00080B500AF0920FFF7D1FF00BF80BD80B5F7
:1006000000AF0820FFF7CAFF00BF80BD80B500AF74
:100610000620FFF7C3FF00BF80BD80B500AF0420F8
:10062000FFF7BCFF00BF80BD80B400AF0C4B40F2B1
:100630000112C3F804210A4B3C22C3F8082100BF71
:10064000074BD3F8003103F40003002BF8D1044B1F
:100650000122C3F8002100BFBD4680BC704700BF27
:100660000040064080B400AF00BF134BD3F8003603
:1006700003F40003002BF8D10F4B0022C3F800262F
:100680000D4B4FF4C012C3F808260B4B0B4A5A61AE
:10069000094BD3F80036084A43F00103C2F800368C
:1006A000054BD3F80036044A43F40003C2F8003681
:1006B00000BFBD4680BC70470040064011000006E8
:1006C00080B400AF074B084A5A6100BF054B1B6955
:1006D0001B0E03F00F03062BF8D100BF00BFBD4671
:1006E00080BC7047004006401300010680B400AF94
:1006F000044B40F20222C3F8042600BFBD4680BC72
:10070000704700BF0040064080B400AF034B044A6E
:100710009A6100BFBD4680BC704700BF00400640E4
:100720000300010280B400AF034B044ADA6100BF4A
:10073000BD4680BC704700BF004006401300010664
:1007400080B500AF114B40F20222C3F80422FFF73C
:1007500009FF0E4B0622C3F800220C4B0122C3F8FE
:100760000822FFF7EFFE00BF084BD3F8003203F07A
:100770000103012BF8D1054BD3F80032034A43F4AF
:100780000003C2F8003200BF80BD00BF0040064039
:1007900080B400AF114BD3F8003603F00073002B88
:1007A00017D10E4BD3F800360C4A23F00103C2F8E0
:1007B00000360A4BD3F80036084A23F48033C2F8D7
:1007C000003600BF054BD3F8003603F08073002BD2
:1007D000F8D100BFBD4680BC704700BF0040064056
:1007E00080B400AF0D4BD3F8003303F00073002B3F
:1007F0000FD10A4BD3F80033084A23F00103C2F8A3
:10080000003300BF054BD3F8003303F08073002B97
:10081000F8D100BFBD4680BC704700BF0040064015
:1008200080B400AF144BD3F8003103F00073002BF9
:100830001ED1114BD3F8003103F40003002B07D075
:100840000D4BD3F800310C4A23F40003C2F80031F9
:10085000094BD3F80031084A23F00103C2F80031F4
:1008600000BF054BD3F8003103F08073002BF8D1A3
:1008700000BFBD4680BC70470040064080B483B0D6
:1008800000AF786039607B68DB6801213A6801FA63
:1008900002F21A437B68DA6000BF0C37BD4680BCA9
:1008A000704780B400AF104BD3F8B430002B07DA98
:1008B0000D4BD3F8B4300C4A43F08043C2F8B43047
:1008C0000A4B4FF440729A63084B4FF44072DA635C
:1008D000064B4FF440721A64044B4FF440725A6452
:1008E00000BFBD4680BC70470050064000A00440D9
:1008F00080B400AF0C4BD3F89030002B07DA0A4BD2
:10090000D3F89030084A43F08043C2F89030074B48
:100910004FF4A0621A61054B4FF4A0625A6100BF08
:10092000BD4680BC704700BF0050064000D0044068
:1009300080B500AF154BD3F83031002B07DA134BDD
:10094000D3F83031114A43F08043C2F83031104BB4
:100950005B690F4A43F4803353610D4B9B680C4A2B
:1009600043F4803393600B4B4FF480721A64094B4D
:100970004FF4E0629A6310210548FFF77FFFFFF70D
:1009800090FFFFF7B5FF00BF80BD00BF00500640DD
:10099000C0F00F4000C0044080B48FB000AF384BAF
:1009A0003B63384B3B62384B7B61384BFB62384BC7
:1009B000FB61384B3B61384BBB62384BFB60384BBB
:1009C000BB61384BBB6009E03B6A1A783B6B1A701D
:1009D0003B6B01333B633B6A01333B627A693B6AA1
:1009E0009A42F1D109E0FB691A78FB6A1A70FB6A36
:1009F0000133FB62FB690133FB613A69FB699A428F
:100A0000F1D105E0BB6A00221A70BB6A0133BB62F8
:100A1000FA68BB6A9A42F5D109E0BB691A787B6A29
:100A20001A70BB690133BB617B6A01337B62BA68B0
:100A3000BB699A42F1D10023FB711B4A1B4B9A42BE
:100A400016D000237B630AE0184A7B6B52F8232000
:100A500015497B6B41F823207B6B01337B63144B7F
:100A60009B087A6B9A42EFD3124B0F4A1A6002E04E
:100A7000104B0E4A1A6000BF3C37BD4680BC704721
:100A80000084FF1F200C0000240C00000484FF1FC2
:100A9000240C0000240C00000000002004000020B2
:100AA000240C0000240C00000080FF1F0000000048
:100AB0000004000008ED00E080B400AF084B094AD4
:100AC0005A60074B5B68064B42F220121A60044BD7
:100AD0004FF6FF729A6000BFBD4680BC704700BFF2
:100AE0000020054020C528D980B487B000AF00237E
:100AF0007B610123FB74344B1B691B0C03F00F0358
:100B00000133FB60304B1B691B0E03F00F03013BED
:100B1000052B46D801A252F823F000BF350B000088
:100B20003B0B0000530B0000A30B0000A30B0000C5
:100B30006B0B0000254B7B6137E0234BD3F8083269
:100B400003F001033B603B68002B2DD01F4B7B6102
:100B50002AE01D4BD3F8083303F003033B601C4A23
:100B60003B6852F823307B611FE0184B7B61164BCA
:100B7000D3F808361B0A03F007030133BB60124B9E
:100B8000D3F808361B0C03F01F0310337B607B691E
:100B90007A6803FB02F2BB685B00B2FBF3F37B6194
:100BA00003E00023FB7400E000BFFB7C002B05D0BA
:100BB0007A69FB68B2FBF3F3064A136000BF1C3787
:100BC000BD4680BC704700BF0040064000127A005E
:100BD0001C0C00000084FF1F80B483B000AF4FF0F6
:100BE000E023D3F80C3D7B607B689BB27B607B6825
:100BF00043F0BF6343F400337B607B6843F004033E
:100C00007B604FF0E0227B68C2F80C3D00BF0C37E0
:100C1000BD4680BC704700BF08ED00E0006CDC0200
:040C2000006CDC0286
:0400000300000410E5
:00000001FF
