:020000040800F2
:1000000000500020B10100083B0200084102000836
:10001000470200084D0200085302000800000000DB
:10002000000000000000000000000000590200086D
:100030005F02000800000000650200086B02000873
:1000400077020008830200088F0200089B02000864
:10005000A7020008B3020008BF020008CB02000894
:10006000D7020008E3020008EF020008FB020008C4
:1000700007030008130300081F0300082B030008F0
:1000800037030008430300084F0300085B03000820
:1000900067030008730300087F0300088B03000850
:1000A00097030008A3030008AF030008BB03000880
:1000B000C7030008D3030008DF030008EB030008B0
:1000C000F7030008030400080F0400081B040008DD
:1000D00027040008330400083F0400084B0400080C
:1000E00057040008630400086F0400087B0400083C
:1000F00087040008930400089F040008AB0400086C
:10010000B7040008C3040008CF040008DB0400089B
:10011000E7040008F3040008FF0400080B050008CA
:1001200017050008230500082F0500083B050008F7
:1001300047050008530500085F0500086B05000827
:1001400077050008830500088F0500089B05000857
:10015000A7050008B3050008BF050008CB05000887
:10016000D7050008E3050008EF050008FB050008B7
:1001700007060008130600081F0600082B060008E3
:10018000370600084306000880B500AF00F060FAAB
:10019000064BDB68054A43F40053D360034BDB682E
:1001A000024A23F40053D360F2E700BF001001407D
:1001B00080B487B000AF1A4A1A4BD31A7B60194B30
:1001C0007B61194B3B610023FB600AE03A69531CD9
:1001D0003B617B69591C796112781A70FB680133A5
:1001E000FB60FA687B689A42F0D3104A104BD31A2E
:1001F0007B600F4B7B610023BB6007E07B695A1C6F
:100200007A6100221A70BB680133BB60BA687B68F0
:100210009A42F3D300BF00BF1C37BD4680BC704775
:1002200004000020040000208C06000804000020C8
:100230000400002080B400AFFEE780B400AFFEE70A
:1002400080B400AFFEE780B400AFFEE780B400AF3B
:10025000FEE780B400AFFEE780B400AFFEE780B4F5
:1002600000AFFEE780B400AFFEE780B400AF00BF90
:10027000BD4680BC704780B400AF00BFBD4680BCA7
:10028000704780B400AF00BFBD4680BC704780B4EB
:1002900000AF00BFBD4680BC704780B400AF00BF58
:1002A000BD4680BC704780B400AF00BFBD4680BC77
:1002B000704780B400AF00BFBD4680BC704780B4BB
:1002C00000AF00BFBD4680BC704780B400AF00BF28
:1002D000BD4680BC704780B400AF00BFBD4680BC47
:1002E000704780B400AF00BFBD4680BC704780B48B
:1002F00000AF00BFBD4680BC704780B400AF00BFF8
:10030000BD4680BC704780B400AF00BFBD4680BC16
:10031000704780B400AF00BFBD4680BC704780B45A
:1003200000AF00BFBD4680BC704780B400AF00BFC7
:10033000BD4680BC704780B400AF00BFBD4680BCE6
:10034000704780B400AF00BFBD4680BC704780B42A
:1003500000AF00BFBD4680BC704780B400AF00BF97
:10036000BD4680BC704780B400AF00BFBD4680BCB6
:10037000704780B400AF00BFBD4680BC704780B4FA
:1003800000AF00BFBD4680BC704780B400AF00BF67
:10039000BD4680BC704780B400AF00BFBD4680BC86
:1003A000704780B400AF00BFBD4680BC704780B4CA
:1003B00000AF00BFBD4680BC704780B400AF00BF37
:1003C000BD4680BC704780B400AF00BFBD4680BC56
:1003D000704780B400AF00BFBD4680BC704780B49A
:1003E00000AF00BFBD4680BC704780B400AF00BF07
:1003F000BD4680BC704780B400AF00BFBD4680BC26
:10040000704780B400AF00BFBD4680BC704780B469
:1004100000AF00BFBD4680BC704780B400AF00BFD6
:10042000BD4680BC704780B400AF00BFBD4680BCF5
:10043000704780B400AF00BFBD4680BC704780B439
:1004400000AF00BFBD4680BC704780B400AF00BFA6
:10045000BD4680BC704780B400AF00BFBD4680BCC5
:10046000704780B400AF00BFBD4680BC704780B409
:1004700000AF00BFBD4680BC704780B400AF00BF76
:10048000BD4680BC704780B400AF00BFBD4680BC95
:10049000704780B400AF00BFBD4680BC704780B4D9
:1004A00000AF00BFBD4680BC704780B400AF00BF46
:1004B000BD4680BC704780B400AF00BFBD4680BC65
:1004C000704780B400AF00BFBD4680BC704780B4A9
:1004D00000AF00BFBD4680BC704780B400AF00BF16
:1004E000BD4680BC704780B400AF00BFBD4680BC35
:1004F000704780B400AF00BFBD4680BC704780B479
:1005000000AF00BFBD4680BC704780B400AF00BFE5
:10051000BD4680BC704780B400AF00BFBD4680BC04
:10052000704780B400AF00BFBD4680BC704780B448
:1005300000AF00BFBD4680BC704780B400AF00BFB5
:10054000BD4680BC704780B400AF00BFBD4680BCD4
:10055000704780B400AF00BFBD4680BC704780B418
:1005600000AF00BFBD4680BC704780B400AF00BF85
:10057000BD4680BC704780B400AF00BFBD4680BCA4
:10058000704780B400AF00BFBD4680BC704780B4E8
:1005900000AF00BFBD4680BC704780B400AF00BF55
:1005A000BD4680BC704780B400AF00BFBD4680BC74
:1005B000704780B400AF00BFBD4680BC704780B4B8
:1005C00000AF00BFBD4680BC704780B400AF00BF25
:1005D000BD4680BC704780B400AF00BFBD4680BC44
:1005E000704780B400AF00BFBD4680BC704780B488
:1005F00000AF00BFBD4680BC704780B400AF00BFF5
:10060000BD4680BC704780B400AF00BFBD4680BC13
:10061000704780B400AF00BFBD4680BC704780B457
:1006200000AF00BFBD4680BC704780B400AF00BFC4
:10063000BD4680BC704780B400AF00BFBD4680BCE3
:10064000704780B400AF00BFBD4680BC704700BF9C
:1006500080B400AF0B4B9B690B4B5B680A4A23F4D9
:1006600070035360084B5B68074A43F440135360C0
:10067000054BDB68044A43F40053D36000BFBD461A
:0C06800080BC70470010024000100140D8
:04000005080001B13D
:00000001FF
