:020000040800F2
:1000000000500020890100081302000819020008AE
:100010001F020008250200082B0200080000000053
:100020000000000000000000000000003102000895
:1000300037020008000000003D02000843020008EB
:100040004F0200085B020008670200087302000804
:100050007F0200088B02000897020008A302000834
:10006000AF020008BB020008C7020008D302000864
:10007000DF020008EB020008F70200080303000893
:100080000F0300081B0300082703000833030008C0
:100090003F0300084B0300085703000863030008F0
:1000A0006F0300087B030008870300089303000820
:1000B0009F030008AB030008B7030008C303000850
:1000C000CF030008DB030008E7030008F303000880
:1000D000FF0300080B0400081704000823040008AD
:1000E0002F0400083B0400084704000853040008DC
:1000F0005F0400086B04000877040008830400080C
:100100008F0400089B040008A7040008B30400083B
:10011000BF040008CB040008D7040008E30400086B
:10012000EF040008FB040008070500081305000899
:100130001F0500082B0500083705000843050008C7
:100140004F0500085B0500086705000873050008F7
:100150007F0500088B05000897050008A305000827
:10016000AF050008BB050008C7050008D305000857
:10017000DF050008EB050008F70500080306000886
:100180000F0600081B06000880B487B000AF1A4AAB
:100190001A4BD31A7B60194B7B61194B3B610023CF
:1001A000FB600AE03A69531C3B617B69591C796129
:1001B00012781A70FB680133FB60FA687B689A4218
:1001C000F0D3104A104BD31A7B600F4B7B61002396
:1001D000BB6007E07B695A1C7A6100221A70BB6819
:1001E0000133BB60BA687B689A42F3D300BF00BF9B
:1001F0001C37BD4680BC704704000020040000206E
:1002000064060008040000200400002080B400AF51
:10021000FEE780B400AFFEE780B400AFFEE780B435
:1002200000AFFEE780B400AFFEE780B400AFFEE7AA
:1002300080B400AFFEE780B400AFFEE780B400AF4B
:10024000FEE780B400AF00BFBD4680BC704780B4FD
:1002500000AF00BFBD4680BC704780B400AF00BF98
:10026000BD4680BC704780B400AF00BFBD4680BCB7
:10027000704780B400AF00BFBD4680BC704780B4FB
:1002800000AF00BFBD4680BC704780B400AF00BF68
:10029000BD4680BC704780B400AF00BFBD4680BC87
:1002A000704780B400AF00BFBD4680BC704780B4CB
:1002B00000AF00BFBD4680BC704780B400AF00BF38
:1002C000BD4680BC704780B400AF00BFBD4680BC57
:1002D000704780B400AF00BFBD4680BC704780B49B
:1002E00000AF00BFBD4680BC704780B400AF00BF08
:1002F000BD4680BC704780B400AF00BFBD4680BC27
:10030000704780B400AF00BFBD4680BC704780B46A
:1003100000AF00BFBD4680BC704780B400AF00BFD7
:10032000BD4680BC704780B400AF00BFBD4680BCF6
:10033000704780B400AF00BFBD4680BC704780B43A
:1003400000AF00BFBD4680BC704780B400AF00BFA7
:10035000BD4680BC704780B400AF00BFBD4680BCC6
:10036000704780B400AF00BFBD4680BC704780B40A
:1003700000AF00BFBD4680BC704780B400AF00BF77
:10038000BD4680BC704780B400AF00BFBD4680BC96
:10039000704780B400AF00BFBD4680BC704780B4DA
:1003A00000AF00BFBD4680BC704780B400AF00BF47
:1003B000BD4680BC704780B400AF00BFBD4680BC66
:1003C000704780B400AF00BFBD4680BC704780B4AA
:1003D00000AF00BFBD4680BC704780B400AF00BF17
:1003E000BD4680BC704780B400AF00BFBD4680BC36
:1003F000704780B400AF00BFBD4680BC704780B47A
:1004000000AF00BFBD4680BC704780B400AF00BFE6
:10041000BD4680BC704780B400AF00BFBD4680BC05
:10042000704780B400AF00BFBD4680BC704780B449
:1004300000AF00BFBD4680BC704780B400AF00BFB6
:10044000BD4680BC704780B400AF00BFBD4680BCD5
:10045000704780B400AF00BFBD4680BC704780B419
:1004600000AF00BFBD4680BC704780B400AF00BF86
:10047000BD4680BC704780B400AF00BFBD4680BCA5
:10048000704780B400AF00BFBD4680BC704780B4E9
:1004900000AF00BFBD4680BC704780B400AF00BF56
:1004A000BD4680BC704780B400AF00BFBD4680BC75
:1004B000704780B400AF00BFBD4680BC704780B4B9
:1004C00000AF00BFBD4680BC704780B400AF00BF26
:1004D000BD4680BC704780B400AF00BFBD4680BC45
:1004E000704780B400AF00BFBD4680BC704780B489
:1004F00000AF00BFBD4680BC704780B400AF00BFF6
:10050000BD4680BC704780B400AF00BFBD4680BC14
:10051000704780B400AF00BFBD4680BC704780B458
:1005200000AF00BFBD4680BC704780B400AF00BFC5
:10053000BD4680BC704780B400AF00BFBD4680BCE4
:10054000704780B400AF00BFBD4680BC704780B428
:1005500000AF00BFBD4680BC704780B400AF00BF95
:10056000BD4680BC704780B400AF00BFBD4680BCB4
:10057000704780B400AF00BFBD4680BC704780B4F8
:1005800000AF00BFBD4680BC704780B400AF00BF65
:10059000BD4680BC704780B400AF00BFBD4680BC84
:1005A000704780B400AF00BFBD4680BC704780B4C8
:1005B00000AF00BFBD4680BC704780B400AF00BF35
:1005C000BD4680BC704780B400AF00BFBD4680BC54
:1005D000704780B400AF00BFBD4680BC704780B498
:1005E00000AF00BFBD4680BC704780B400AF00BF05
:1005F000BD4680BC704780B400AF00BFBD4680BC24
:10060000704780B400AF00BFBD4680BC704780B467
:1006100000AF00BFBD4680BC704780B400AF00BFD4
:10062000BD4680BC704700BF80B400AF0B4B9B69D8
:100630000B4B5B680A4A23F470035360084B5B68FA
:10064000074A43F440135360054BDB68044A43F404
:100650000053D36000BFBD4680BC7047001002400D
:040660000010014045
:040000050800018965
:00000001FF
